:100000000C94E2060C9429070C9429070C942907F8
:100010000C9429070C9429070C9429070C942907A0
:100020000C9429070C9429070C94CF280C94A2292E
:100030000C94451F0C9429070C9429070C9429074C
:100040000C9429070C9429070C9429070C94290770
:100050000C9429070C94A61F0C9429070C942907CB
:100060000C9429070C9429070C9429070C94290750
:100070000C9429070C9429070C9429070C94290740
:100080000C9429070C9429070C9429070C94290730
:100090000C9429070C9429070C9429070C94290720
:1000A0000C9429070C9429070C94290735001E008D
:1000B0001F0020002100220023002400250026002C
:1000C00027002D002E0031004C002B0000001400F2
:1000D0001A000800150017001C0018000C00120080
:1000E00013002F0030002A00290000000400160031
:1000F000070009000A000B000D000E000F0033007E
:10010000340028000000E000E1001D001B00060094
:1001100019000500110010003600370038000000FB
:10012000E500E400000001510000E20000000000D2
:100130002C00000000000000E600E7000251000073
:10014000000001003A003B003C003D003E003F0043
:10015000400041004200430044004500010000709F
:100160003900000001000100010001000100010050
:100170000100010001000100010001000100010077
:1001800000000100010001000100010050005100C9
:1001900052004F00010001000100000001000100B9
:1001A0000100010001000100010001000100010047
:1001B000010001000000010001000000010000003A
:1001C000010000000000010000000000000001002C
:1001D0000100010000000000010001000100010019
:1001E0000100010001000100010001000100010007
:1001F00001000100010001000000010001000100F8
:100200000100010001000100010001000100307047
:100210003170327001000000010001000100010096
:1002200001000100010001000100010001000100C6
:100230000000010001000100010001003B703A7064
:10024000397038703770367034700000010001006A
:1002500000000100000001000000000035700000F7
:10026000000000000100010001000000000001008A
:100270000100010001000100010001000100010076
:100280000100010001000100010001000100000067
:100290000100010001000100010001000100010056
:1002A0000100010001000100010001000000010047
:1002B0000100010001000100010001000100010036
:1002C0000100010001000000010001000100010027
:1002D0000100010001000100010001000100010016
:1002E000000001000100000001000000010000000A
:1002F00000000100000000000000010001000100FA
:1003000000000000010001000100010001000100E7
:1003100001000100010001000100010001000100D5
:1003200001000100000001000100010001000100C6
:1003300001000100010001000100010001000100B5
:1003400001000000010001000100010001000100A6
:100350000100010001000100010001000000010096
:100360000100010001000100010001000100010085
:100370000100010001000000010001000000010077
:10038000000001000000000001000000000000006B
:100390000100010001000000000001000100010057
:1003A0000100010001000100010001000100010045
:1003B0000100010001000100010000000100010036
:1003C0000100010001000100010001000100010025
:1003D0000100010001000100000001000100010016
:1003E0000100010001000100010001000100010005
:1003F00001000000010001000100010001000100F6
:1004000001000100010001000100010000000100E5
:1004100001000000010000000100000000000100D8
:1004200000000000000001000100010000000000C9
:1004300001000100010001000100010001000100B4
:1004400001000100010001000100010001000100A4
:100450000000010001000100010001000100010095
:100460000100010001000100010001000100000085
:100470000100010001000100010001000100010074
:100480000100010001000100000001000100010065
:100490000100010001000100010001000100010054
:1004A0000100000001000100000001000000010047
:1004B0000000000001000000000000000100010039
:1004C0000100000000000100010001000100010026
:1004D0000100010001000100010001000100010014
:1004E0000100010001000000010001000100010005
:1004F00001000100010001000100010001000100F4
:1005000001000100000001000100010001000100E4
:1005100001000100010001000100010001000000D4
:1005200001000100010001000100010001000100C3
:1005300001000100010001000000010001000000B5
:1005400001000000010000000000010000000000A8
:100550000000010001000100000000000100010096
:100560000100010001000100010001000100010083
:100570000100010001000100010001000000010074
:100580000100010001000100010001000100010063
:100590000100010001000100010000000100010054
:1005A0000100010001000100010001000100010043
:1005B0000100010000000100010001000100010034
:1005C0000100010001000100010001000100000024
:1005D0000100010000000100000001000000000017
:1005E0000100000000000000010001000100000007
:1005F00000000100010001000100010001000100F4
:1006000001000100010001000100010001000100E2
:1006100001000000010001000100010001000100D3
:1006200001000100010001000100010001000100C2
:1006300000000100010001000100010001000100B3
:1006400001000100010001000100000001000100A3
:100650000100010001000100010001000100010092
:100660000100010000000100010000000100000085
:100670000100000000000100000000000000010077
:100680000100010000000000010001000100010064
:100690000100010001000100010001000100010052
:1006A0000100010001000100000001000100010043
:1006B0000100010001000100010001000100010032
:1006C0000100010001000000010001000100010023
:1006D0000100010001000100010001000100010012
:1006E0000000010001000100010001000100010003
:1006F00001000100010001000100000001000100F3
:1007000000000100000001000000000001000000E6
:1007100000000000010001000100000000000100D5
:1007200001000100010001000100010001000100C1
:1007300001000100010001000100010001000000B2
:1007400001000100010001000100010001000100A1
:100750000100010001000100010001000000010092
:100760000100010001000100010001000100010081
:100770000100010001000000010001000100010072
:100780000100010001000100010001000100010061
:100790000000010001000000010000000100000055
:1007A0000000010000000000000001000100010045
:1007B0000000000001000100010001000100010033
:1007C0000100010001000100010001000100010021
:1007D0000100010000000100010001000100010012
:1007E0000100010001000100010001000100010001
:1007F00001000000010001000100010001000100F2
:1008000001000100010001000100010000000100E1
:1008100001000100010001000100010001000100D0
:1008200001000100010000000100010000000100C2
:1008300000000100000000000100000000000000B6
:1008400001000100010000000000010001000100A2
:100850000100010001000100010001000100010090
:100860000100010001000100010000000100010081
:100870000100010001000100010001000100010070
:100880000100010001000100000001000100010061
:100890000100010001000100010001000100010050
:1008A0000100000001000100010001000100010041
:1008B0000100010001000100010001000000010031
:1008C0000100000001000000010000000000010024
:1008D0000000000000000100010001000000000015
:1008E0000100010001000100010001000100010000
:1008F00001000100010001000100010001000100F0
:1009000000000100010001000100010001000100E0
:1009100001000100010001000100010001000000D0
:1009200001000100010001000100010001000100BF
:1009300001000100010001000000010001000100B0
:10094000010001000100010001000100010001009F
:100950000100000001000100000001000000010092
:100960000000000001000000000000000100010084
:100970000100000000000100010001000100010071
:10098000010001000100010001000100010001005F
:100990000100010001000000010001000100010050
:1009A000010001000100010001000100010001003F
:1009B0000100010000000100010001000100010030
:1009C0000100010001000100010001000100000020
:1009D000010001000100010001000100010001000F
:1009E0000100010001000100000001000100000001
:1009F00001000000010000000000010000000000F4
:100A000000000100010001000000000064321464D5
:100A10003214783C1E1E140A05000000000101017A
:100A20000202030405050607090A0B0C0E0F11123A
:100A3000141517191B1D1F212325282A2C2F31348B
:100A400036393B3E414346494C4F5255585A5D61F9
:100A500064676A6D707376797C7F8386898C8F92E8
:100A600095989B9EA2A5A7AAADB0B3B6B9BCBEC1CE
:100A7000C4C6C9CBCED0D3D5D7DADCDEE0E2E4E61B
:100A8000E8EAEBEDEEF0F1F3F4F5F6F8F9FAFAFB3B
:100A9000FCFDFDFEFEFEFFFFFFFFFFFFFFFEFEFE73
:100AA000FDFDFCFBFAFAF9F8F6F5F4F3F1F0EEEDE2
:100AB000EBEAE8E6E4E2E0DEDCDAD7D5D3D0CECB71
:100AC000C9C6C4C1BEBCB9B6B3B0ADAAA7A5A29EE3
:100AD0009B9895928F8C898683807C797673706DD4
:100AE0006A6764615D5A5855524F4C494643413ECE
:100AF0003B393634312F2C2A282523211F1D1B1961
:100B000017151412110F0E0C0B0A09070605050420
:100B100003020201010100000000000000000101C9
:100B200001010101010101020202020202020202AC
:100B3000030303030303030304040404040405057B
:100B4000050505060606060607070707080808083C
:100B50000909090A0A0A0A0B0B0B0C0C0C0D0D0DE6
:100B60000E0E0F0F0F101011111112121313141477
:100B7000151516161717181819191A1A1B1C1C1DEB
:100B80001D1E1F1F20202122222324252526272742
:100B900028292A2B2B2C2D2E2F2F30313233343570
:100BA00036363738393A3B3C3D3E3F40414243447C
:100BB000464748494A4B4C4D4F5051525355565752
:100BC000585A5B5C5E5F606263646667696A6C6DFD
:100BD0006E707173747678797B7C7E808183848675
:100BE000888A8B8D8F91929496989A9B9D9FA1A3B2
:100BF000A5A7A9ABADAFB1B3B5B7B9BBBDBFC1C4B4
:100C0000C6C8CACCCFD1D3D6D8DADCDFE1E4E6E877
:100C1000EBEDF0F2F5F7FAFCFF12036B00650079DB
:100C20000062006F00610072006400000016037132
:100C3000006D006B006200750069006C0064006567
:100C400000720000000403090409026D00040100A1
:100C5000A0FA0904000001030101000921110100AB
:100C6000012240000705810308000A090401000170
:100C700003010200092111010001224D0007058234
:100C80000308000A09040200010300000009211101
:100C90000100012236000705830308000A09040346
:100CA00000010300000009211101000122390007A1
:100CB0000584032000011201100100000008EDFE70
:100CC000606001000102000105010906A10105079C
:100CD00019E029E71500250195087501810205082D
:100CE0001901290595057501910295017503910179
:100CF0000507190029F71500250195F875018102EE
:100D0000C005010980A10185021601002603001A11
:100D100081002A8300751095018100C0050C09012E
:100D2000A1018503160100269C021A01002A9C02DB
:100D3000751095018100C005010902A1010901A1F9
:100D40000005091901290515002501950575018181
:100D500002950175038101050109300931158125CD
:100D60007F95027508810609381581257F950175E3
:100D7000088106050C0A38021581257F9501750842
:100D80008106C0C005010906A101050719E029E790
:100D900015002501950875018102950175088101ED
:100DA000050819012905950575019102950175033D
:100DB00091010507190029FF150026FF009506750A
:100DC000088100C011241FBECFEFDAE0DEBFCDBF27
:100DD00004B603FE27C08091AA029091AB02A091B5
:100DE000AC02B091AD028730904BA740B04BD1F42C
:100DF0001092AA021092AB021092AC021092AD02B5
:100E000014BE84B7877F84BF0FB6F894A8958091ED
:100E10006000886180936000109260000FBEE0E087
:100E2000F8E3099511E0A0E0B1E0E4E5FAE502C0DD
:100E300005900D92AC33B107D9F722E0ACE3B1E0F5
:100E400001C01D92AA3AB207E1F70E9423260C9432
:100E5000F32C0C94000090E080E00895089508952C
:100E600081E0089581FF03C0809A88980895809852
:100E7000FCCF81E008950C9430070E947C172FEF7F
:100E800084E39CE0215080409040E1F700C00000E6
:100E90000C94C91FEF92FF920F931F93CF93DF9390
:100EA0007C01DC010D911C91119780918D018111C4
:100EB00043C012968C918823D1F1C8010E94011D74
:100EC000C82F682FC8010E94AA1CB8018C2F0E944D
:100ED000F308EC01B7010E943B07882309F468C0BE
:100EE000B701CE010E942B0B882309F461C0CE33D9
:100EF000B0E7DB0770F4C433E0E7DE0710F5C1307C
:100F0000F0E7DF0709F45CC050F5C115D04709F4DC
:100F10004AC081E080933E0180933F01C701DF9189
:100F2000CF911F910F91FF90EF900C943907C8015A
:100F30000E94D81CC82FC9CFC8010E94011DB8014A
:100F4000C6CFFE01E553F047D70112968C91E930E8
:100F5000F10508F040C0EB50F34D0C94A52CCE01E8
:100F6000825090474397A8F6F70182818823B1F217
:100F70000E94C81E811102C00E94A21E0E94E51E8E
:100F800090E090939B0280939A02FE01E350F04719
:100F900080919A028160E231F10508F047C0E25089
:100FA000F34D0C94A52CF701828181110E943D071D
:100FB00080E0DF91CF911F910F91FF90EF90089506
:100FC000D70112968C91882399F380912502816034
:100FD00080932502EDCF882359F30E94B30FE8CF09
:100FE000882331F30E94A90FE3CF882309F30E94DD
:100FF000860EDECF8823E1F20E949E0ED9CF882391
:10100000B9F20E94BD0ED4CF882391F20E94D50E72
:10101000CFCF882369F20E94ED0ECACF882341F218
:101020000E94050FC5CF80919A02826080939A0238
:1010300080919A020E94E91E0E947C17B9CF80918C
:101040009A028460F3CF80919A028860EFCF8091FA
:101050009A028061EBCF80919A028062E7CF809103
:101060009A028064E3CF80919A028068DFCF8091FA
:101070009A028C60DBCF80919A028E7FD7CF8091CD
:101080009A028D7FD3CF80919A028B7FCFCF8091B0
:101090009A02877FCBCF80919A028F7EC7CF8091B3
:1010A0009A028F7DC3CF80919A028F7BBFCF8091B0
:1010B0009A028F77BBCF80919A02837FB7CF9091AE
:1010C0009A02892F97FB87F98058B0CF882361F067
:1010D00010923E010E94751F90933D0180933C0148
:1010E00082E00E94C11464CF80913E0181110FC043
:1010F00080913C0190913D010E94811F883C9105A7
:1011000030F486E20E94961386E20E94721482E016
:101110000E94C8144DCF882351F010923F010E94C5
:10112000751F90933D0180933C0180E2DACF80915E
:101130003F0181110FC080913C0190913D010E94BF
:10114000811F883C910530F487E20E94961387E264
:101150000E94721480E2DCCF0C947C0B279A2F98AB
:101160008FEF9FEF90938700809386008AE08093B3
:10117000800089E1809381000C94D5230E94AE0801
:101180000C947A0B282F2F9880918000211108C091
:10119000877F8093800010928D0010928C000895BC
:1011A000886080938000233039F48FEF9FEF909315
:1011B0008D0080938C00089583E090E0821B91095C
:1011C000880F991F2FEF3FEF02C0369527958A951C
:1011D000E2F730938D0020938C0008950C94320731
:1011E0000C94EE080895972F70E02FE0929F600D09
:1011F000711D1124FB019BE4899FE00DF11D112459
:10120000EE0FFF1FE455FF4F859194910895FC0167
:10121000EE0FFF1FE45FF54F8591949108950E94B2
:10122000F3080E94AF0A9C01211581E5380708F0F8
:1012300046C0211590E5390708F00CC1283E31055C
:1012400018F5203E3105C8F5283A310578F4253ADD
:10125000310508F097C02130310579F1C9010497B3
:10126000813A910550F130E020E027C02D3B310557
:1012700008F493C0C901805C91098032910598F708
:101280000E9407099C0119C0211580E3380770F4FA
:10129000211590E2390708F0D7C02F3F310509F03A
:1012A00060F4203F3105F8F2306507C0211580E475
:1012B000380708F4CCC03F70306AC9010895211581
:1012C00090E73907C8F5211580E6380708F0FAC01D
:1012D000211594E53907F0F4211583E5380708F066
:1012E000D8C0211592E5390708F4CEC0C901837032
:1012F000992741E050E002C0440F551F8A95E2F75C
:101300002695269580E2289F90011124242B352BC9
:101310003C68D3CF211595E5390708F4CEC0C90143
:1013200095558F3F910511F008F09DCF322F222760
:1013300022273F713062C1CF213380E7380709F49B
:10134000C3C0A0F4203380E7380748F4203290E788
:10135000390708F488CF20523047346DAECF2033A0
:10136000304709F080CF20E031EDA7CF223390E75E
:10137000390709F4ACC02333304709F074CF20E0BB
:1013800033ED9BCF253A310509F4A4C0263A310547
:1013900009F0A3C022E830E490CF283A310509F4DF
:1013A0009FC0293A310509F49EC02A3A310509F453
:1013B0009DC02B3A310509F49CC02C3A310509F443
:1013C0009BC02B3B310509F49AC02C3B310509F435
:1013D00099C02D3A310509F498C0203B310509F434
:1013E00097C02E3A310509F496C02F3A310509F419
:1013F00095C0213B310509F494C0223B310509F425
:1014000093C0233B310509F492C0243B310509F414
:1014100091C0253B310509F490C0263B310509F404
:101420008FC0273B310509F48EC0283B310509F4F4
:101430008DC0293B310509F48CC02A3B310509F4E4
:101440008BC020E034E439CFC9019F7019CF332716
:10145000306C33CFC90154E0969587955A95E1F7E2
:101460008370422F46954695437090E2499FA001B4
:101470001124582B822F837021E030E002C0220F0C
:10148000331F8A95E2F742CF322F2227216F306A2D
:1014900014CFC9018370992741E050E002C0440F86
:1014A000551F8A95E2F72695269580E2289F9001A0
:1014B0001124242B352B3A6800CF322F2227246F9A
:1014C000306AFBCE3F7036CF20E030EDF6CE20E024
:1014D00032EDF3CE21E830E4F0CE23E830E4EDCE77
:1014E00022EE34E4EACE29EE34E4E7CE2AEE34E408
:1014F000E4CE25EB34E4E1CE26EB34E4DECE23EB80
:1015000034E4DBCE24EB34E4D8CE27EB34E4D5CE80
:101510002CEC34E4D2CE2DEC34E4CFCE23E835E409
:10152000CCCE2AE835E4C9CE22E935E4C6CE24E99A
:1015300035E4C3CE21E236E4C0CE23E236E4BDCEAC
:1015400024E236E4BACE25E236E4B7CE26E236E42B
:10155000B4CE27E236E4B1CE2AE236E4AECE803E07
:10156000910581F1C8F48133910509F462C048F412
:101570008932910509F456C08A32910509F460C098
:10158000089589339105B9F082389105A1F085332A
:10159000910509F440C00895863E910561F138F443
:1015A000823E9105B1F0833E9105E1F00895873EBA
:1015B000910551F1089520919A022370D9F080EE9F
:1015C00090E0089520919A0220FF14C089E390E0F2
:1015D000089520919A0222FF0DC024FD09C083EED8
:1015E00090E0089520919A0222FD31C024FF02C0AC
:1015F00090E080E0089520919A0223FFFBCF24FD24
:10160000F7CF87EE90E0089520919A0223FFEECF66
:1016100086EE90E0089520919A0225FFEBCF89E2B3
:1016200090E0089520919A0225FFE4CF85E390E0B1
:10163000089520919A0226FFDDCF8AE290E0089576
:1016400020919A0226FFD6CF81E390E0089582EEA2
:1016500090E0089508950F931F93CF938C01FB01A1
:101660008281811106C0C1E08C2FCF911F910F9113
:101670000895C0914D01C11125C00531104799F75A
:101680000E942A0B81E080934D010E94751F909368
:101690004C0180934B011092400110924201109234
:1016A00041011092440110924301109246011092A0
:1016B0004501109248011092470110924A01109280
:1016C0004901D2CF80914B0190914C010E94811F22
:1016D000883C910540F680914001E82FF0E0EE0F44
:1016E000FF1FEF5BFE4F118300838F5F80934001EC
:1016F000C0E0BACF0C942E070C942F07CF93DF9342
:1017000085B7806885BF85B7806885BFA3E2B1E0F3
:1017100048E251E0C1E0D0E08D91E82FE295EF7012
:10172000F0E061A18F709E0101C0220F8A95EAF757
:10173000922F9095962391A382A1822B82A34A1780
:101740005B0751F7A4E1B1E061E070E08D91E82F13
:10175000E295EF70F0E041A18F709B0101C0220F74
:101760008A95EAF7922F9095942391A382A1822BD8
:1017700082A381E0A332B80749F710925901109271
:10178000580110924F0110924E0110925B0110927D
:101790005A01109251011092500110925D01109265
:1017A0005C01109253011092520110925F0110924D
:1017B0005E01109255011092540110926101109235
:1017C00060011092570110925601DF91CF910C9455
:1017D000BE084F925F927F928F929F92AF92BF927C
:1017E000CF92DF92EF92FF920F931F93CF93DF93ED
:1017F0009EE4492E91E0592E23E2E22E21E0F22EC2
:1018000001E010E099249394E201A990B9902E018F
:10181000DE011E921E92F70181917F01E82FE29571
:10182000EF70F0E091A18F70980101C0220F8A95AE
:10183000EAF7892F822B81A382A1822E80948821AE
:1018400082A380EA8A95F1F784E1C82E81E0D82E40
:1018500090E080E0E60179916E01472F42954F704C
:1018600050E0EA0178A04D915C9111977F70E801FA
:1018700002C0CC0FDD1F7A95E2F7BE01672109F0A7
:1018800072C0B801082E02C0660F771F0A94E2F7F3
:10189000462B572B11965C934E9301968F309105F2
:1018A000C9F681A1882281A282A1282B22A38D9131
:1018B0009C91A816B90641F0909262010E94751F92
:1018C0009093640180936301D8E54D16D1E05D06E5
:1018D00009F09ACF80916201882391F18091630190
:1018E000909164010E94811F069750F180914E01F2
:1018F00090914F019093590180935801809150012C
:101900009091510190935B0180935A018091520113
:101910009091530190935D0180935C0180915401FB
:101920009091550190935F0180935E0180915601E3
:101930009091570190936101809360011092620130
:101940000E94AC0881E0DF91CF911F910F91FF9031
:10195000EF90DF90CF90BF90AF909F908F907F904F
:101960005F904F90089570E060E092CFE82FF0E034
:10197000EE0FFF1FE85AFE4F808191810895089570
:101980009C01CB0165B1542F5095562365B1462B70
:101990006FB7F894820F931F2817390711F46FBFA0
:1019A0000895F90171919F01E8E045B9000000C078
:1019B00077FF55B9770F000000C000C000C055B9CF
:1019C00000C0EA9591F7E8CFFC0194B1942B94B94B
:1019D0009B01220F331F620F731FCF010E94C00CA7
:1019E00087EC90E00197F1F700C00000089540E215
:1019F0000C94E40CAF92BF92CF92DF92EF92FF92E1
:101A00000F931F93CF93DF937C01E901842F242F41
:101A1000662309F43FC0C42ED12C8FEF90E0861BC3
:101A20009109489F8001499F100D1124212F812F7A
:101A30009927C81AD90A9CE3A92EB12CC701B50170
:101A40000E947D2CFB01BC01C69EC001C79E900D6B
:101A5000D69E900D1124B5010E947D2CE330F10536
:101A600009F443C080EFE816F10468F4E130F105B1
:101A700091F13297A1F18CE3E816F10440F180E096
:101A800020E040E007C0E430F10599F1842F861B87
:101A90003597A9F7E42FF0E0E75EF44F4491E22F89
:101AA000F0E0E75EF44F9491E82FF0E0E75EF44F4A
:101AB000E49149839883EA83DF91CF911F910F913D
:101AC000FF90EF90DF90CF90BF90AF900895812F5F
:101AD000262F210FDFCF812F242F461BDBCF862F10
:101AE000810FE42F412F2E2FD5CFE42FE61B842F1B
:101AF000F9CF842F462F410FCDCF88E090E00C9492
:101B0000B32CAB01BC0188E090E00C94D12CCF93B6
:101B1000DF9300D000D0CDB7DEB7E2E5F2E083E09E
:101B2000808311828FEF8283838380915202909110
:101B30005302A0915402B091550289839A83AB83DA
:101B4000BC83BC01CD010F900F900F900F90DF91DF
:101B5000CF910C94810D80915202EAE5F2E080FF72
:101B600006C064E170E08AE592E00C94F70C118203
:101B700010821282339682E0E639F807C1F7F1CF7E
:101B8000EAE5F2E0818360834283339692E0E639AE
:101B9000F907C1F70C94AB0DEF92FF920F931F93CF
:101BA000CF93DF9300D00F92CDB7DEB7182FE92E79
:101BB000F62E042F8091520290915302A09154026C
:101BC000B09155028093560290935702A093580209
:101BD000B09359028091520280FF1FC09E012F5F77
:101BE0003F4F812F9E2D0E94FA0C8091560210FBD0
:101BF00087F9809356021695809157028078182BAA
:101C0000E0FA17F910935702F09258020093590224
:101C10004B8169818A810E94C00D0F900F900F90B7
:101C2000DF91CF911F910F91FF90EF9008950F9347
:101C30001F93CF93DF9300D000D00F92CDB7DEB7C4
:101C400089839D83062F142F8091520280FF54C0F8
:101C5000982F9E77923091F589819D810E94CC0DBD
:101C600080915202B981B0FB87F980935202B695F8
:101C7000809153028078B82B8D8180FBB7F9B093A7
:101C80005302009354021093550280915202909196
:101C90005302A0915402B091550289839A83AB8379
:101CA000BC83BC01CD010F900F900F900F900F904F
:101CB000DF91CF911F910F910C94810D982F9695E4
:101CC0009F732EE3290F2F73243018F410915502BF
:101CD000C7CF965C9F73993018F6881F8827881F96
:101CE000909153029D83990F982B9983AD81A7FB07
:101CF000AA27A0F9AD83B4CF0F900F900F900F904B
:101D00000F90DF91CF911F910F910895E2E5F2E0DE
:101D10002081221F2227221F30915302432F440F7C
:101D2000842F822B37FB992790F9089668E671E09B
:101D30000E94912C438162810C94170E20915202D3
:101D4000221F2227221F30915302432F440F842F3A
:101D5000822B37FB992790F98830910540F4805AFF
:101D60009E4F40915502609154020C94170E0897B3
:101D700068E671E00E94912CF4CF60915402683FB4
:101D800090F4685F80915202881F8827881F909185
:101D90005302292F220F97FB992790F94091550262
:101DA000822B0C94170E6FEFEDCF609154026830C8
:101DB00090F0685080915202881F8827881F909168
:101DC0005302292F220F97FB992790F94091550232
:101DD000822B0C94170E60E0EDCF40915502483FE6
:101DE00090F4485F80915202881F8827881F909145
:101DF0005302292F220F97FB992790F960915402E3
:101E0000822B0C94170E4FEFEDCF409155024830C6
:101E100090F0485080915202881F8827881F909127
:101E20005302292F220F97FB992790F960915402B2
:101E3000822B0C94170E40E0EDCFCF93DF9300D0B0
:101E400000D0CDB7DEB79091520290FF47C0917895
:101E5000811132C09260909352028091520290910F
:101E60005302A0915402B091550289839A83AB83A7
:101E7000BC83BC01CD010E94810D80915202982F3C
:101E80009E77923009F510927A01881F8827881F63
:101E900090915302292F220F97FB992790F9409197
:101EA000550260915402822B0F900F900F900F906B
:101EB000DF91CF910C94170E893110F09063CBCF46
:101EC0008F73880F982BC7CF982F9695925C9F732E
:101ED0009631D8F691E090937A01D7CF0F900F907A
:101EE0000F900F90DF91CF9108958091250281602E
:101EF0008093250281E080937B010E94C81E81119E
:101F000004C00E94A21E0E94870D0E947D0D609356
:101F100052027093530280935402909355026E774D
:101F200061F40E94870D0E947D0D609352027093B0
:101F30005302809354029093550281E080937A017A
:101F40008091520280FF04C086958F730C941D0F00
:101F500008958091520286958F738F5F893108F0C2
:101F600081E00C941D0FCF93DF9300D000D0CDB74C
:101F7000DEB790915202892F8E7F90FF816080930F
:101F800052028091520290915302A0915402B0915A
:101F9000550289839A83AB83BC83BC01CD010E9427
:101FA000810D8091520280FF0AC086958F730F9039
:101FB0000F900F900F90DF91CF910C941D0F109206
:101FC0007A019FEFA0E7B2E09150A040B040E1F766
:101FD00000C000000F900F900F900F90DF91CF91F5
:101FE0000C94AB0DCF93C82F80917801909179011B
:101FF0000E94811FEC2FF0E0EB5EF54FE491E817B3
:10200000190609F010F50E94751F909379018093CD
:102010007801E0917701F0E0E75EF54F449180911F
:102020005202881F8827881F90915302292F220F60
:1020300097FB992790F960915402822B0E94CC0D56
:10204000809177018F5F80937701CF910895CF932F
:10205000C82F80917501909176010E94811FEC2F0D
:10206000F0E0EE5EF54FE491E817190609F0E8F4A8
:102070000E94751F909376018093750140915502DF
:102080006091540280917301909174010E94CC0D73
:102090008091730190917401019668E671E00E944D
:1020A0007D2C9093740180937301CF910895CF920A
:1020B000DF92EF92FF921F93CF93DF93182F8091BF
:1020C0007101909172010E94811FE12FE695F0E06D
:1020D000EE5EF54FE491E817190609F0C0F50E948D
:1020E000751F90937201809371018AE5E82E82E05A
:1020F000F82ED0E0C0E098E6C92EDD24D39480917C
:102100006F01909170018C0F9D1FB6010E947D2C74
:10211000970140915502609154020E94FA0C629618
:1021200083E0E80EF11CC83681E0D80741F70E9431
:10213000AB0D80916F019091700110FF10C001965E
:10214000BE010E947D2C9093700180936F01DF91FE
:10215000CF911F91FF90EF90DF90CF90089501975E
:10216000F2CFAF92BF92CF92DF92EF92FF920F9396
:102170001F93CF93DF93C82FDD24DA9480FD02C034
:10218000DD24D39480916D0190916E010E94811F96
:10219000C695EC2FF0E0E15FF54FE491E8171906E2
:1021A00011F008F053C00E94751F90936E01809348
:1021B0006D01CAE5D2E010E000E097E0A92EB12C55
:1021C000198218821A8287E0E82EF12CC12C8091A6
:1021D0006C018C0D87FD8C5E082E000C990B80170E
:1021E0009107E9F4209155022E9DC0012F9D900D7D
:1021F0001124B5010E94912C462F80915202881F14
:102200008827881F90915302592F550F97FB9927C4
:1022100090F99E0160915402852B0E94FA0CCD0C1E
:1022200081E0E81AF10899F60F5F1F4F23960431F9
:10223000110531F60E94AB0D80916C0191E0D9122D
:1022400012C081110EC083E180936C01DF91CF91A8
:102250001F910F91FF90EF90DF90CF90BF90AF90C4
:1022600008958150F1CF90E00196B8010E94912C21
:10227000EBCFBF92CF92DF92EF92FF920F931F931B
:10228000CF93DF93CDB7DEB7EC970FB6F894DEBFF0
:102290000FBECDBF182F80916A0190916B010E94F3
:1022A000811FE12FF0E0E45FF54FE491E817190694
:1022B00011F008F07AC00E94751F90936B01809313
:1022C0006A018E010F5F1F4FF12CE12C6801D801CC
:1022D00011961C9211971C9212961C92B12C9091FF
:1022E000000180916901B99E800D112484310CF0A8
:1022F00083E187FD80E0082E000C990B8E159F0569
:10230000A1F480915202881F8827881F9091530260
:10231000592F550F97FB992790F998014091550235
:1023200060915402852B0E94FA0CB394B7E0BB1263
:10233000D6CFEFEFEE1AFE0A0D5F1F4FF4E1EF1656
:10234000F10429F62AE532E009E010E054E1E52E37
:10235000F12CC801B7010E94912CFC01EE0FFF1F68
:10236000E80FF91FEC0DFD1D8181D90111968C93A9
:10237000119780818C93828112968C930F5F1F4FEF
:102380002D5F3F4F0D31110521F70E94AB0D90914C
:102390000001809169019130E1F48A3FB4F489EF42
:1023A000809369018FEF80930001EC960FB6F8944B
:1023B000DEBF0FBECDBFDF91CF911F910F91FF9078
:1023C000EF90DF90CF90BF90089581508093690186
:1023D000ECCF8B312CF08AE18093690181E0E3CF6F
:1023E0008F5FF4CFCF93DF93809167019091680165
:1023F0000E94811F883E934028F10E94751F909390
:102400006801809367018091650190916601019652
:10241000817099279093660180936501CAE5D2E0A7
:102420009E01409155026091540290E080E00E942C
:10243000FA0C239682E0C639D80791F7DF91CF9145
:102440000C94AB0DDF91CF91089580917A01882390
:1024500071F18091520286958F739EE3980F9F735E
:10246000943018F482500C94F20F9AE3980F9F73F3
:10247000933018F486500C94271097E3980F9F73AD
:10248000963018F489500C94571091E3980F9F736D
:10249000963018F48F500C94B1109BE2980F9F73F4
:1024A000933018F485510C9439110C94F21108955D
:1024B00090938101809380010895E0918001F091D3
:1024C0008101309721F00190F081E02D099480E0A6
:1024D0000895E0918001F0918101309721F0028010
:1024E000F381E02D09940895E0918001F09181013C
:1024F000309721F00480F581E02D09940895209112
:102500007E0130917F012817390771F090937F0188
:1025100080937E01E0918001F0918101309721F05C
:102520000680F781E02D0994089520917C01309177
:102530007D012817390771F090937D0180937C010C
:10254000E0918001F0918101309721F00084F185C4
:10255000E02D0994089508950C94AB120E946C1F0D
:102560000E947E0B0E9436200E94D5230C94750F8A
:102570005F926F927F928F929F92AF92BF92CF9213
:10258000DF92EF92FF920F931F93CF93DF9300D0D0
:1025900000D00F92CDB7DEB70E94E90B93E8A92EC9
:1025A00091E0B92E10E000E088248394912C502E05
:1025B000802F0E94B60C7C01F501C190D1905F0183
:1025C000C816D90609F45DC08091250281FD0E94DC
:1025D000BF0C90E080E0CE24DF243401082E02C03E
:1025E000660C771C0A94E2F7960126213721232BEB
:1025F00009F442C089835A82E620F72081E0EF285F
:1026000009F480E08B830E94751F8160782F9D8381
:102610008C8349815A816B818D810E946D13000FDB
:10262000111FF801ED57FE4F8081918168267926B0
:10263000718260820E94E3220E945D129091820169
:102640008917B1F10E945D12809382010F900F9063
:102650000F900F900F90DF91CF911F910F91FF90EE
:10266000EF90DF90CF90BF90AF909F908F907F9032
:102670006F905F900C94F00801968F30910509F0EF
:10268000ACCF0F5F1F4F0530110509F090CF8FEFD2
:1026900089838A831B820E94751F8160782F9D83A6
:1026A0008C8349815A816B818D810E946D13C2CFC9
:1026B0000F900F900F900F900F90DF91CF911F917F
:1026C0000F91FF90EF90DF90CF90BF90AF909F90D1
:1026D0008F907F906F905F900895CF93DF93CDB7E9
:1026E000DEB72B970FB6F894DEBF0FBECDBF4F837A
:1026F000588769877A878B871E8285E0FE01379627
:10270000DE01119601900D928A95E1F749815A8177
:102710006B817C818D819E812B960FB6F894DEBFF4
:102720000FBECDBFDF91CF910C94041A882309F41A
:10273000D8C0823871F40E945D1281FDD2C089E355
:102740000E94A91D0E94731E89E30E94E61D0C943D
:10275000731E833859F40E945D1280FDC2C083E568
:102760000E94A91D0E94731E83E5EFCF843859F49F
:102770000E945D1282FDB5C087E40E94A91D0E94DF
:10278000731E87E4E2CF9CEF980F913A18F40E94F1
:10279000A91DDDCF90E2980F983050F4877091E03A
:1027A00001C0990F8A95EAF7892F0E942A1ECFCF80
:1027B0009BE5980F933070F4853A31F0863A39F002
:1027C00083E890E00C947F1281E890E0FBCF82E8F0
:1027D00090E0F8CF98E5980F953108F082C0883ADC
:1027E00009F440C0893A09F440C08A3A09F440C06B
:1027F0008B3A09F440C08C3A09F440C08B3B09F491
:1028000040C08C3B09F440C08D3A09F440C0803B85
:1028100009F440C08E3A09F440C08F3A09F440C030
:10282000813B09F440C0823B09F440C0833B09F47A
:1028300040C0843B09F440C0853B09F440C0863B5E
:1028400009F440C0873B09F440C0883B09F440C00C
:10285000893B09F440C08A3B09F440C090E080E025
:102860000C94951282EE90E0FBCF89EE90E0F8CFC9
:102870008AEE90E0F5CF85EB90E0F2CF86EB90E02A
:10288000EFCF83EB90E0ECCF84EB90E0E9CF87EBE8
:1028900090E0E6CF8CEC90E0E3CF8DEC90E0E0CFE1
:1028A00083E891E0DDCF8AE891E0DACF82E991E038
:1028B000D7CF84E991E0D4CF81E292E0D1CF83E217
:1028C00092E0CECF84E292E0CBCF85E292E0C8CF17
:1028D00086E292E0C5CF87E292E0C2CF8AE292E040
:1028E000BFCF0895882309F44BC0823871F40E9449
:1028F0005D1281FF45C089E30E94A91D0E94731EDD
:1029000089E30E94E61D0C94731E833859F40E94DB
:102910005D1280FF35C083E50E94A91D0E94731ED1
:1029200083E5EFCF843859F40E945D1282FF28C0FE
:1029300087E40E94A91D0E94731E87E4E2CF9CEFEA
:10294000980F913AF0F290E2980F983050F4877017
:1029500091E001C0990F8A95EAF7892F0E94301EF5
:10296000D2CF9BE5980F933020F490E080E00C9458
:102970007F12885A853120F490E080E00C94951203
:102980000895882321F00E942A1E0C94731E089536
:10299000882321F00E94301E0C94731E08958F929C
:1029A0009F92AF92BF92DF92EF92FF920F931F938D
:1029B000CF93DF9300D000D00F92CDB7DEB77C016C
:1029C0006D837983FC01058102950F7012811111CD
:1029D0000E94491E0E94A21DD82E882371F0112347
:1029E000A1F08D81805E883080F082E00E948C1D95
:1029F0000E94A21D91E0D82ED926E981E295EF70C0
:102A0000F0E0E05FF24D0C94A52CD12CF6CF0981BB
:102A10000F70F981F07F11F00295007F1123B1F062
:102A2000002361F08D81805E883018F02D812111A6
:102A300009C0802F0E942A1E0E94731E8D810E9451
:102A4000961315C0802F0E943B1EF6CF8D810E94E9
:102A50007214002361F08D81805E883018F03D8112
:102A6000311129C0802F0E94301E0E94731EDD206C
:102A700009F4F3C10E947F1D80FDEFC1F7011282AE
:102A80000E94791D0E94C21BC7010E943E170E942E
:102A9000791D0F900F900F900F900F90DF91CF91B5
:102AA0001F910F91FF90EF90DF90BF90AF909F909C
:102AB0008F900C94E41B802F0E94411ED6CF498139
:102AC0004F70B42E5981507F503219F0B29480EF7C
:102AD000B8228D81882369F0813029F1112369F1B1
:102AE000002359F0F701858180FFA8CF8F7085837F
:102AF00004C0112361F0011104C08B2D0E94C11488
:102B0000B6CF8B2D0130D1F70E945D1EB0CF0111E1
:102B100006C00E94601E8B2D0E94C814A8CF0130F1
:102B200009F4A5CFF6CF112321F0063008F09FCF8E
:102B3000E4CF053008F09BCFEECF002361F38D8109
:102B40000E94721494CF898186958695837069F06E
:102B5000813009F08CCF8D8199819370111102C061
:102B600090E080E00E94951282CF8D8199819370D0
:102B7000111102C090E080E00E947F1278CF8D8119
:102B8000112329F00E94F1210E94D82270CF0E94C7
:102B90005922FACF8981837009F05FC0111167CF84
:102BA0002D81229526952770220F220F8D818F70FF
:102BB00090E0B0E0A0E04C015D01022E04C0880C62
:102BC000991CAA1CBB1C0A94D2F7FD8160E070E03E
:102BD000CB01F4FF0FC06FE070E080E090E004C034
:102BE000660F771F881F991F2A95D2F760957095F9
:102BF0008095909529812695269523702D832230E6
:102C0000B1F0233019F19B01AC01282939294A2957
:102C10005B2929833A834B835C833D8169817A8177
:102C20008B819C813130B1F00E944F1B20CF9B01E2
:102C3000AC01282939294A295B2929833A834B8306
:102C40005C83CA01B9010E94791B11CF0E944F1BFE
:102C5000C501B4010E94251B0ACF8695112311F0EE
:102C600089818170882309F402CF2D8122952695D0
:102C70002770220F220F8D818F7090E0B0E0A0E0CE
:102C80004C015D01022E04C0880C991CAA1CBB1CBF
:102C90000A94D2F73D8160E070E0CB0134FF0FC0B1
:102CA0006FE070E080E090E004C0660F771F881F3F
:102CB000991F2A95D2F760957095809590954981D6
:102CC0004695469543704D834230B1F0433019F13B
:102CD0009B01AC01282939294A295B2929833A8398
:102CE0004B835C833D8169817A818B819C8131300A
:102CF000B1F00E94551CBBCE9B01AC01282939299B
:102D00004A295B2929833A834B835C83CA01B90131
:102D10000E947F1CACCE0E94551CC501B4010E94CC
:102D20002B1CA5CE3D81323F09F447C080F4303FD3
:102D300079F1313FD9F1832F805E8031D0F01123BA
:102D400009F456C001117ACE89818F7133C04D814B
:102D5000433FD1F1443F99F7112309F43FC08981E2
:102D60008F7189830E94C21B63E089810E94831D49
:102D70007ECE5D815F705D8389818F71112321F02B
:102D80000E94C21B8D81BACE0E94E41B8D81C4CEED
:102D9000112341F0053008F06ACE89818F710E94BD
:102DA000091C65CE063008F062CEF7CF89818F719D
:102DB000112339F00E94C21B5ACE89818F711123D1
:102DC000C9F30E94E41B53CE112329F089818F712E
:102DD0000E94AD1B4CCE0E94A31B49CE81E00E94F5
:102DE0008C1D023008F443CE82E00E948C1D3FCE41
:102DF0000111A5CE89818F71E4CF49814F706D811A
:102E0000C7010E942B070E949E1A31CE11112FCEAE
:102E1000E981EF70E983E23099F028F4E1110DC007
:102E20000E94E72324CEF981F33069F0F43009F0F1
:102E30001ECE8D810E944F241ACE0E94FF2317CEF2
:102E40000E94182414CE0E942C2411CE49814F7068
:102E50006D81C7010E94F2080ACE0F900F900F906B
:102E60000F900F90DF91CF911F910F91FF90EF90F6
:102E7000DF90BF90AF909F908F9008950F931F9316
:102E8000CF93DF93EC018B819C81892B29F0888182
:102E9000998189238F3F29F4DF91CF911F910F9161
:102EA0000895CE010E944A078823B1F36881798191
:102EB0008A810E944F1D8C010E94A91C0E941A1B2E
:102EC000B801CE01DF91CF911F910F910C94CF14D7
:102ED0000E94491E0E945A1E0E941C1E0E94731EC0
:102EE0000E94C9230E94D82290E080E00E947F12B5
:102EF00090E080E00C9495120E94381E0C946817A4
:102F00000E94431D282F892F82958F70903C80F45A
:102F10008A30B0F4843020F4823090F480E0089558
:102F20008630E1F781E0203E88F0213FB9F70EC0FE
:102F30008C3011F08F3091F793FB882780F908953A
:102F400081E0203F39F018F4203E40F70895243FF7
:102F500029F7FCCF0895CF93DF9300D000D00F92D4
:102F6000CDB7DEB70F900F900F900F900F90DF91BD
:102F7000CF910895CF93DF9300D000D000D0CDB78C
:102F8000DEB726960FB6F894DEBF0FBECDBFDF9139
:102F9000CF9108951F93CF93DF93E0918E0116E0B8
:102FA00080918F018E1304C0DF91CF911F910895FE
:102FB000CE2FD0E01E9FF0011124E057FE4F40813C
:102FC000518162817381848195810E94BA17FE01CB
:102FD0003196E770E5CF4091C0015091C1016091F9
:102FE000C2017091C3018091C4019091C5010C94FC
:102FF000BA171F93CF93DF938091C501807FC1F4EF
:103000008091C2018823A1F080918E01C0918F012F
:103010006091C0017091C1014091C3015091C40100
:10302000D62FD723DA01A095B09516E0C81304C0B7
:10303000DF91CF911F91089590E04115510511F056
:10304000DF3F31F401968770F1CF2A0F3B1F17C085
:10305000189FF001199FF00D1124E057FE4F2181B8
:103060002713F0CF20812613EDCF22812111EACF43
:10307000238134812417350740F3241B350B283C6A
:10308000310500F72091C5012F7020612093C50103
:1030900026E0289FF001299FF00D1124EB56FE4FEA
:1030A00080818F708061808380EC91E00E943E1768
:1030B000DF91CF911F910C94CA179F92AF92BF924C
:1030C000CF92DF92EF92FF920F931F93CF93DF93F4
:1030D000CDB7DEB72B970FB6F894DEBF0FBECDBFCE
:1030E0008C0185E0F801DE01179601900D928A951A
:1030F000E1F7D8014C9111965C9111971296EC90E2
:1031000012978091C3019091C401009709F46BC19B
:103110002091C0013091C101632F62236F3F09F4F8
:1031200062C11396CD90DC909090C201992009F471
:10313000F8C0C816D90608F43FC0F601E81BF90B21
:10314000CF01FF24F394883C910508F0F12C80EC2A
:10315000A82E81E0B82E8091C501982F907FFF2086
:1031600009F4B7C0911180C0FE2C35132AC0241376
:1031700028C0E11026C08F7080618093C5010E9435
:10318000EB17C5010E943E178091C501D801159625
:103190008C938F2D2B960FB6F894DEBF0FBECDBF4C
:1031A000DF91CF911F910F91FF90EF90DF90CF9023
:1031B000BF90AF909F900895809590958C0D9D1D28
:1031C000C0CFCD2829F0842F85238F3F09F019C166
:1031D00080E0B82FB170DB2EE0918E0120918F013D
:1031E00036E080FD1CC0EE20A1F28091C501816017
:1031F0008093C501F12CCDCF8E2F90E03E9FF00142
:103200001124E057FE4F6181651306C0608164138D
:1032100003C062816E11E7CFFC013196E770E213C3
:10322000EBCF4F8358878F8198850E94431D292FAC
:1032300022952F70903260F0225F2F70223078F448
:103240009F7051F0F8019581907F31F4D12C0AC024
:103250009F7011F08823D1F3805E8830B8F3C801E5
:103260000E943E17FD2C95CF351306C0241304C0D1
:10327000D801EE2009F47BC04F8358878F81988551
:103280000E948017882309F4B8C0EE2009F4B5C065
:103290008091C501803270F02091C0013091C10150
:1032A0003A8329831B82DD82CC828E83CE010196F4
:1032B0000E943E1786E0F801A0ECB1E001900D926B
:1032C0008A95E1F70E94F9170E94EB17FF24F39407
:1032D00060CF911113C07C2DDB86CA866E2D8B8545
:1032E0000E94AB1780EC91E00E943E1786E0F5014A
:1032F00011928A95E9F70E94EB174BCF3513BCCF9B
:103300002413BACFE110B8CFD80115968C93C80119
:103310000E943E1786E0F50111928A95E9F7F92C93
:1033200038CFC816D90688F1B601681B790BCB01D6
:10333000F12C883C910508F047C0FE2CEE2009F4E2
:103340005CC0351330C024132EC08091C50180FDB0
:1033500021C0982F907FF1F0D80115968C93159786
:10336000903F39F0982F907F905F8F70892B159642
:103370008C93C8010E943E1786E0F801A0ECB1E0F2
:1033800001900D928A95E1F7B6CF809590958C0DBE
:103390009D1DCECF86E0F801A0ECB1E001900D922A
:1033A0008A95E1F7F6CE4F8358878F8198850E94E2
:1033B000801781117FCF8091C50181608093C50105
:1033C000C8010E943E17E5CE7C2DDB86CA866E2D95
:1033D0008B850E94AB1786E0E0ECF1E0DF011D92E7
:1033E0008A95E9F788CFEE2041F04F8358878F8187
:1033F00098850E94801781115DCFC8010E943E17F9
:1034000065CF81E08E25E5CE1F93CF93DF93CDB7B7
:10341000DEB72C970FB6F894DEBF0FBECDBF4F833B
:10342000588769877A878B879C87CE0107960E9489
:103430005D18882369F08A859B85892B39F04F8137
:103440005885842F85238F3F09F071C016E05FC037
:1034500086E0FE013796DE01119601900D928A9565
:10346000E1F78A859B85892B89F388859F8189234C
:103470008F3F61F320918F0130E0C9010196877081
:10348000992740918E014817190671F40E947C1704
:1034900010928F0110928E0186E0E0ECF1E0DF01E6
:1034A0001D928A95E9F7D2CF96E0929FD001939F23
:1034B000B00D1124A057BE4FFE01319601900D9220
:1034C0009A95E1F780938F010E94CA17BFCF819F21
:1034D000C001112480579E4F0E945D188823E9F097
:1034E000E0918E011E9FF0011124E057FE4F4081B4
:1034F000518162817381848195810E94BA17809184
:103500008E0190E001968770992780938E018091BB
:103510008E0190918F018913DACF2C960FB6F89413
:10352000DEBF0FBECDBFDF91CF911F91089569859A
:103530007A858B859C850E94BA1788CFEF92FF927F
:103540000F931F93CF93DF938C01892B89F0F12C7C
:10355000EE24E394E8012196F8018491843709F47C
:1035600057C0A0F4823009F43EC048F48130D1F055
:10357000DF91CF911F910F91FF90EF9008959CEFF5
:10358000980F9037A8F70E9496130AC0853709F460
:103590004CC09CE7980F903758F78F770E947214B1
:1035A0008E0116C00E5F1F4FFE01849190E2980FAE
:1035B000983060F48770FE2D01C0FF0F8A95EAF7FE
:1035C0008F2F0E944C1E0E94731E02C00E949613F1
:1035D0008F2D815008F4BECFEFE9FFE03197F1F76E
:1035E00000C00000F6CF0E5F1F4FFE01849190E2F5
:1035F000980F983050F48770FE2D01C0FF0F8A9508
:10360000EAF78F2F0E94521EDECF0E947214E0CF85
:103610000E5F1F4FFE01C491C150D0F28FE99FE0B1
:103620000197F1F700C00000F7CF0E5F1F4FFE01BA
:10363000F490CECF08956093FC017093FD018093C8
:10364000FE019093FF010C946817CF93DF9300D095
:1036500000D0CDB7DEB769837A838B839C8380915A
:10366000FC019091FD01A091FE01B091FF01298123
:103670003A814B815C81822B932BA42BB52B8093B9
:10368000FC019093FD01A093FE01B093FF010F9008
:103690000F900F900F90DF91CF910C946817CF93FC
:1036A000DF9300D000D0CDB7DEB769837A838B83F8
:1036B0009C838091FC019091FD01A091FE01B0914D
:1036C000FF0129813A814B815C8182239323A423CA
:1036D000B5238093FC019093FD01A093FE01B0936C
:1036E000FF010F900F900F900F90DF91CF910C94EE
:1036F0006817CF93DF9300D000D0CDB7DEB76983D2
:103700007A838B839C838091FC019091FD01A09131
:10371000FE01B091FF0129813A814B815C818227B2
:103720009327A427B5278093FC019093FD01A093D4
:10373000FE01B093FF010F900F900F900F90DF915B
:10374000CF910C9468171092F8011092F901109221
:10375000FA011092FB010C94681741E050E060E020
:1037600070E004C0440F551F661F771F8A95D2F77B
:103770004093F8015093F9016093FA017093FB01B3
:103780000C946817282F81E090E0A0E0B0E004C01E
:10379000880F991FAA1FBB1F2A95D2F74091F801E5
:1037A0005091F9016091FA017091FB01842B952BE6
:1037B000A62BB72B8093F8019093F901A093FA01FF
:1037C000B093FB010C94681741E050E060E070E0BA
:1037D00004C0440F551F661F771F8A95D2F7409586
:1037E0005095609570958091F8019091F901A091A4
:1037F000FA01B091FB0184239523A623B72380937C
:10380000F8019093F901A093FA01B093FB010C9495
:103810006817282F81E090E0A0E0B0E004C0880F96
:10382000991FAA1FBB1F2A95D2F74091F80150910A
:10383000F9016091FA017091FB0184279527A62771
:10384000B7278093F8019093F901A093FA01B09300
:10385000FB010C946817CF93DF9300D000D0CDB755
:10386000DEB769837A838B839C838091F801909182
:10387000F901A091FA01B091FB0129813A814B81B4
:103880005C81822B932BA42BB52B8093F801909312
:10389000F901A093FA01B093FB010F900F900F90E4
:1038A0000F90DF91CF910C946817CF93DF9300D0E6
:1038B00000D0CDB7DEB769837A838B839C838091F8
:1038C000F8019091F901A091FA01B091FB012981D1
:1038D0003A814B815C8182239323A423B523809377
:1038E000F8019093F901A093FA01B093FB010F90B6
:1038F0000F900F900F90DF91CF910C946817CF939A
:10390000DF9300D000D0CDB7DEB769837A838B8395
:103910009C838091F8019091F901A091FA01B091F6
:10392000FB0129813A814B815C8182279327A4275F
:10393000B5278093F8019093F901A093FA01B09311
:10394000FB010F900F900F900F90DF91CF910C948F
:1039500068170895E82F2FE0929FE00D11248E2F15
:10396000877041E001C0440F8A95EAF7E695E69535
:10397000E69585E0E89FF0011124EA53FE4F30E020
:1039800020E070E05191DF011197CB01022E02C0BF
:10399000969587950A94E2F781708195852784230F
:1039A00085278C932F5F3F4F2530310559F70895B8
:1039B000E82F2FE0929FE00D11249E2F9770E6953F
:1039C000E695E69585E0E89FF0011124EA53FE4F65
:1039D00050E040E080E0219130E0092E02C03695B1
:1039E00027950A94E2F721703327042E01C0220F95
:1039F0000A94EAF7822B4F5F5F4F4530510559F724
:103A00000895BF92CF92DF92EF92FF920F931F9390
:103A1000CF93DF938C01C090F801D090F901E09032
:103A2000FA01F090FB018091FC019091FD01A091C1
:103A3000FE01B091FF01C82AD92AEA2AFB2ACFE168
:103A4000D0E0BC2ED701C6010C2E04C0B695A795B8
:103A5000979587950A94D2F780FD0EC0219788F735
:103A6000B12C8B2DDF91CF911F910F91FF90EF9093
:103A7000DF90CF90BF900895B8018C2F0E940F095E
:103A8000019761F3EECFCF93DF93D82FC92F0E9418
:103A9000011D6D2F7C2FDF91CF910C940F091F9387
:103AA000CF93DF93162FD72F90918D01992339F063
:103AB000862F972FDF91CF911F910C94431D882360
:103AC00091F0862F972F0E94011DC82F682F812FFC
:103AD0009D2F0E94AA1C612F7D2F8C2FDF91CF91EB
:103AE0001F910C940F09862F972F0E94D81CC82F66
:103AF000F2CF8091000285958595859508958091F6
:103B000000028770089598E0899F90011124622B2C
:103B1000609300020C94C21B90910002809589234F
:103B200080930002282F277061F4282F082E000CA4
:103B3000330B9217130629F08595859585950C947E
:103B4000E41B089590910002977081E009F480E0F1
:103B50000895909113019923E1F090919A0297FFB3
:103B600018C0E82FE695E695E695EF3139F12091FA
:103B7000010130910201E20FF32FF11D877021E066
:103B800030E001C0220F8A95EAF78181822B818380
:103B900008952091010130910201F90132969FEFC1
:103BA00040E05191851751F09F3F19F4511101C028
:103BB000942F4F5F4E31A9F79F3F09F40895290FC5
:103BC000311D97FD3A95F901828308959091130173
:103BD000992301F190919A0297FF1CC0E82FE69576
:103BE000E695E695EF3139F120910101309102011E
:103BF000E20FF32FF11D877021E030E0A90102C030
:103C0000440F551F8A95E2F7CA0180959181892357
:103C1000818308952091010130910201F9013296CA
:103C2000205E3F4F9191891303C0DF0111971C92D1
:103C3000E217F307B9F7089581E090E0E091010100
:103C4000F0910201E80FF91F108201968032910570
:103C5000A9F7089590912402982B90932402089537
:103C6000982F9095809124028923809324020895AF
:103C700010922402089590912302982B909323028E
:103C80000895982F90958091230289238093230291
:103C9000089510922302089590912202982B9093F8
:103CA00022020895982F9095809122028923809373
:103CB000220208951092220208958093010208952D
:103CC0001092010208952091010130910201F90141
:103CD0003196205E3F4F80E0919191118F5FE21706
:103CE000F307D1F70895E0910101F091020180916D
:103CF00024028083E0910101F09102018081909182
:103D00002302892B8083E0910101F09102018081DF
:103D100090912202892B808390910102992361F076
:103D2000E0910101F09102018081892B80830E9442
:103D3000631E811110920102809101019091020194
:103D40000C9469126DEE7EEF90E080E00E94DD2C15
:103D500060E082E090E00E94BF2C60E083E090E0B1
:103D60000E94BF2C60E084E090E00E94BF2C60E0E5
:103D700085E090E00E94BF2C60E086E090E00E9429
:103D8000BF2C40E050E0BA0188E090E00C94D12CC8
:103D900090E080E00E94B92C9C0181E02D3E3E4FD6
:103DA00009F080E0089582E090E00C94AB2C682F3D
:103DB00082E090E00C94BF2C83E090E00C94AB2C5C
:103DC000682F83E090E00C94BF2C84E090E00C948A
:103DD000AB2C682F84E090E00C94BF2C86E090E040
:103DE0000C94AB2C682F86E090E00C94BF2C809153
:103DF000A102843051F11092260288E190E020E483
:103E00000FB6F894A895809360000FBE20936000D1
:103E100080E00E94C20880E00E94F00883B7817FA2
:103E2000846083BF83B7816083BF7894889583B7AC
:103E30008E7F83BF0FB6F894A8958091600088614B
:103E400080936000109260000FBE08950895089559
:103E5000CF930E94261F0E94E90B0E94271FC0E0FB
:103E60008C2F0E94B60C892B31F4CF5FC530C1F77F
:103E700080E0CF91089581E0FCCF0E947C170E94E2
:103E8000D5230E945D120C94F0081F921FB61F925A
:103E900011248F939F93AF93BF938091260281113A
:103EA00013C08091960290919702A0919802B091D0
:103EB00099024196A11DB11D80939602909397029D
:103EC000A0939802B0939902BF91AF919F918F9167
:103ED0001F901FBE1F90189582E084BD93E095BD92
:103EE0009AEF97BD80936E0008952FB7F894809154
:103EF000960290919702A0919802B09199022FBFDB
:103F00000895CF92DF92EF92FF929C014FB7F89401
:103F10008091960290919702A0919802B091990297
:103F20004FBF6C017D01EE24FF24A90170E060E029
:103F3000C416D506E606F70638F0821B930BFF90F1
:103F4000EF90DF90CF9008950197F7CF1F921FB6A3
:103F50001F9211248F939F93AF93BF9380919602EA
:103F600090919702A0919802B09199020196A11D9B
:103F7000B11D8093960290939702A0939802B093FC
:103F80009902BF91AF919F918F911F901FBE1F907B
:103F900018950E945428F8942FEF87EA91E6215053
:103FA00080409040E1F700C0000087E090EBDC012A
:103FB0008093AA029093AB02A093AC02B093AD029F
:103FC00088E19CE00FB6F894A895809360000FBE3E
:103FD00090936000FFCFAF92BF92CF92DF92EF92AB
:103FE000FF920F931F93CF93C0E0AA24A394B12C08
:103FF000E82EF12C8C2F0E94B60C6C0110E000E032
:10400000C501002E02C0880F991F0A94E2F78C2187
:104010009D21892B99F0602F7C2F80E00E94F3086E
:10402000E816F90659F481E0CF911F910F91FF90A6
:10403000EF90DF90CF90BF90AF9008950F5F1F4F2C
:104040000F301105E9F6CF5FC530A1F680E0ECCF67
:10405000CF93C82F8CE20E94EB1F882321F08C2F76
:10406000CF910C94EB1F80E0CF910895CF93DF9315
:1040700000D000D0CDB7DEB70E94C81E811102C0AB
:104080000E94A21E95E6998308C00E94E90B8FE367
:104090009CE90197F1F700C00000A981A150A98314
:1040A000A111F3CF89E20E942820811110C18AE278
:1040B0000E94282081110E94A21E85E00E942820D3
:1040C00081110E94C91F0E94D31E8093250287E0A0
:1040D0000E942820882371F08BE10E9428208823E9
:1040E00009F4D1C090912502892F8D7F91FF8260C4
:1040F00080932502809125020E94D71E0E94E51E12
:1041000090E090939B0280939A0280EE0E94282078
:10411000882341F090919A02892F8E7F90FF8160D1
:1041200080939A0289E30E942820882341F090918D
:104130009A02892F8D7F91FF826080939A0282EE8E
:104140000E942820882341F090919A02892F8B7F2A
:1041500092FF846080939A0286EE0E942820882332
:1041600041F090919A02892F877F93FF8860809316
:104170009A0283EE0E942820882341F090919A02AF
:10418000892F8F7E94FF806180939A0285E30E943D
:104190002820882341F090919A02892F8F7D95FFE6
:1041A000806280939A0281E30E942820882341F054
:1041B00090919A02892F8F7B96FF806480939A0258
:1041C00081E10E942820882341F090919A02892F52
:1041D00097FB87F9805880939A0280919A020E94F7
:1041E000E91E87E20E94282089838EE10E94282010
:1041F000882319F0B981B260B9838FE10E94282029
:10420000882319F029812460298380E20E942820D4
:10421000882319F039813860398381E20E9428208F
:10422000882319F049814061498382E20E94282055
:10423000882319F059815062598383E20E94282013
:10424000882319F089818064898384E20E94282070
:104250008823B1F199819068998389810E94E01E39
:104260003981232F30E050E040E029833A834B83AB
:104270005C83CA01B9010F900F900F900F90DF91EE
:10428000CF910C941B1B8EE00E942820882339F0CC
:1042900090912502892F8B7F92FF846029CF80E146
:1042A0000E94282090912502882329F0892F877F5A
:1042B00093FF88601DCF892F8E7F90FF816018CF7C
:1042C000A981A111CACF0E94DC1E282FCBCF0F904D
:1042D0000F900F900F90DF91CF9108958091290258
:1042E00080FF12C06091060185E0689FB001112433
:1042F000759567957595679560387105A8F5611591
:104300007105A1F1862F089581FF09C06091060112
:1043100085E0689FB001112475956795EDCF609198
:10432000060182FD0AC080912A028823D1F0909173
:10433000050160910601891728F085E0689FB001AA
:104340001124DACF869FB001112485E0869F900169
:10435000879F300D1124692F70E0C9010E94912CB4
:10436000CBCF65E070E0CECF8FE7089581E0089570
:104370008091290280FF0CC06091040170E0759566
:104380006795759567956115710549F1862F0895B3
:1043900081FF06C06091040170E075956795F3CFC9
:1043A0006091040182FD0BC090912A029923A1F033
:1043B0006091030180910401961738F0682F70E036
:1043C0006038710500F38FE70895899FC0011124BB
:1043D00070E00E94912CF4CF61E070E0D7CF81E0D3
:1043E0000895803F31F40E946E21819580932D02C3
:1043F0000895813F19F40E946E21F8CF823F31F475
:104400000E946E21819580932C020895833F19F4B8
:104410000E946E21F8CF893F29F40E94B821809331
:104420002E0208958A3F21F40E94B8218195F7CF8A
:104430008B3F31F40E94B821819580932F0208951B
:104440008C3F19F40E94B821F8CF843F31F4809159
:104450002B02816080932B020895853F21F4809187
:104460002B028260F7CF863F21F480912B0284607B
:10447000F1CF873F21F480912B028860EBCF883FFA
:1044800021F480912B028061E5CF8D3F31F4809142
:10449000290281608093290208958E3F21F4809142
:1044A00029028260F7CF8F3FB9F78091290284609B
:1044B000F1CF90912C02803F41F480912D0287FD35
:1044C00010922D02992371F00895813F29F4809173
:1044D0002D021816ACF3F6CF823F81F497FFF2CF8E
:1044E00010922C0280912D0290912E02892B909196
:1044F0002F02892B49F710922A020895833F19F45D
:10450000191674F3DFCF893F39F480912E02181603
:10451000CCF610922E02D6CF8A3F29F480912E023B
:1045200087FFD0CFF6CF8B3F39F480912F0287FFE2
:10453000C9CF10922F02C6CF8C3F29F480912F0251
:104540001816BCF3BFCF843F31F480912B028E7FCD
:1045500080932B02B7CF853F21F480912B028D7F72
:10456000F7CF863F21F480912B028B7FF1CF873FDD
:1045700021F480912B02877FEBCF883F21F480913B
:104580002B028F7EE5CF8D3F31F4809129028E7F03
:104590008093290297CF8E3F21F4809129028D7F4D
:1045A000F7CF8F3F09F08ECF809129028B7FF0CF1C
:1045B0008BE292E00E9474120E94751F9093280271
:1045C0008093270208951F93CF93DF9300D000D0EC
:1045D00000D0CDB7DEB780912702909128020E94CB
:1045E000811FAC0180912A022091070130E08111E6
:1045F00006C0209108019AE0299F900111244217DA
:10460000530788F020912C02A0912D02A9831091CC
:104610002E02B0912F02BE8321110FC09A2F912B31
:104620009B2B09F0B2C026960FB6F894DEBF0FBEE2
:10463000CDBFDF91CF911F9108958F3F19F08F5F0C
:1046400080932A02121624F40E946E2180932C0279
:1046500080912C0287FF05C00E946E218195809376
:104660002C022981121624F40E946E2180932D02BF
:1046700080912D0287FF05C00E946E218195809355
:104680002D0280912C02882309F455C030912D020F
:104690003D83332309F44FC0282F880F330B440B7D
:1046A000550B29833A834B835C83CA01B9010E946D
:1046B000842B23E333E343E35FE369837A838B83D0
:1046C0009C8369817A818B819C810E94E82B69831C
:1046D0007A838B839C8369817A818B819C810E9400
:1046E0004C2B60932C028D81082E000C990BAA0B89
:1046F000BB0B89839A83AB83BC83BC01CD010E9431
:10470000842B23E333E343E35FE369837A838B837F
:104710009C8369817A818B819C810E94E82B6983CB
:104720007A838B839C8369817A818B819C810E94AF
:104730004C2B60932D02111624F40E94B821809313
:104740002E0280912E0287FF05C00E94B82181951C
:1047500080932E029E81191624F40E94B821809322
:104760002F0280912F0287FF05C00E94B8218195FA
:1047700080932F0226960FB6F894DEBF0FBECDBFF2
:10478000DF91CF911F910C94D8228F3F09F057CF22
:1047900068CF85E0EBE2F2E0DF011D928A95E9F750
:1047A00010922A021092290208950E94C81E8111B7
:1047B00002C00E94A21E0E94EE1E982F80939C02AF
:1047C000817090FF02C0892F86950C94C208809159
:1047D0009C02982F9695863030F49F5F990F8170D8
:1047E000892B80939C0280919C02816080939C0223
:1047F0000E94F21E80919C0286950C94C2088091C2
:104800009C02982F9E7F79F0825080939C028E7F2D
:1048100091E009F490E080919C0290FB80F98093F4
:104820009C020E94F21E80919C0286950C94C20804
:1048300090919C02892F8E7F90FF816080939C02D3
:104840000E94F21E90919C02892F817090FF02C0FD
:10485000892F86950C94C20890919C02892F869589
:104860008F5F8F7791708430B8F4880F892B809395
:104870009C0280919C028E7F91E009F490E08091EF
:104880009C0290FB80F980939C020E94F21E809112
:104890009C0286950C94C20890939C02EACF90915A
:1048A0009C02292F26952827220F9170922B9093F6
:1048B0009C029E7F21E009F420E080919C0220FB75
:1048C00080F980939C020E94F21E80919C02869542
:1048D0000C94C208809150020895CF93DF9300D0CA
:1048E0000F92CDB7DEB72091A102243019F523E055
:1048F00029838A839B832093E9008FEF9091E800BE
:10490000815095FD06C095ED9A95F1F70000811153
:10491000F5CF8091E80085FF0DC050E040E063E0F6
:1049200070E0CE0101960E94CC268091E8008E773F
:104930008093E8000F900F900F90DF91CF91089532
:10494000CF93DF9300D00F92CDB7DEB79C0180915B
:10495000A102843031F582E08983205831093B83FC
:104960002A8383E08093E9008FEF9091E8008150E3
:1049700095FD06C095ED9A95F1F700008111F5CFF0
:104980008091E80085FF0DC050E040E063E070E0FA
:10499000CE0101960E94CC268091E8008E7780930C
:1049A000E8000F900F900F90DF91CF910895209124
:1049B000A1022430F1F422E02093E9002FEF30919E
:1049C000E800215035FD06C035ED3A95F1F70000BD
:1049D0002111F5CF2091E80025FF0BC050E040E009
:1049E00065E070E00E94CC268091E8008E7780938D
:1049F000E8000895CF93DF93D82FC92F8091A102AB
:104A00008430F1F4909113019923E9F090919A0286
:104A100097FF19C08093E9008FEF9091E8008150D3
:104A200095FD06C095E19A95F1F700008111F5CF4B
:104A30008091E80050E040E060E270E085FD1AC03F
:104A4000DF91CF91089581E08093E9008FEF9091FD
:104A5000E800815095FD06C095ED9A95F1F70000AC
:104A60008111F5CF8091E80085FFEACF50E040E06A
:104A700068E070E08D2F9C2F0E94CC268091E8008A
:104A80008E778093E80080E2ED2FFC2FA0E3B2E068
:104A900001900D928A95E1F7D3CF8091A002811108
:104AA00009C00E9454280E94B1288091E2008460CD
:104AB0008093E20008951092A00208950895089549
:104AC0000C943D1F42E061EC81E00E94D02742E05F
:104AD00061EC82E00E94D02742E061EC83E00E941A
:104AE000D02742E261EC84E00C94D0278091A302AD
:104AF000893089F148F4823009F494C0833009F494
:104B00004FC0813041F008958A3009F47BC08B306A
:104B100009F461C008958091A202813A09F03FC072
:104B20008091E800877F8093E8008091A6029091B1
:104B3000A702892B61F460E280E392E070E00E94BA
:104B40001B278091E8008B778093E800089560E050
:104B500090E080E0F3CF8091A202813201F5809154
:104B6000A6029091A702009711F00397C1F48091DB
:104B7000E800877F8093E8008091E80082FF0BC007
:104B80008091F100809350028091E8008B778093B0
:104B9000E8000C9404288091A1028111EDCF0895C2
:104BA0008091A202813AD9F78091A6029091A70242
:104BB000892BA9F78091E800877F8093E800809196
:104BC000E80080FFFCCF809113018093F100809179
:104BD000E8008E77DCCF8091A202813201F78091CC
:104BE000A6029091A702892BD1F68091E800877FD9
:104BF0008093E8000E9404288091A402809313010E
:104C00000C947C178091A202813249F68091E800D1
:104C1000877F8093E8000E9404288091A5028093FA
:104C2000510208958091A202813A09F0B8CF809193
:104C3000E800877F8093E8008091E80080FFFCCF48
:104C400080915102C2CF84B7877F84BF0FB6F8949A
:104C5000A895809160008861809360001092600048
:104C60000FBE80E880936100109261000E94AC1238
:104C70000E9454280E94B1288091E20084608093B1
:104C8000E20078940E94312B0E94AE1289E091E0FC
:104C90000E9458128091A102853029F00E94B8121A
:104CA0000E942512F7CF0E94F71E80919F02882351
:104CB00089F30E94281F882369F30E94B626EACF51
:104CC0009C01DA01892F992783309105C1F068F49E
:104CD0008130910509F445C0029761F48DE690E0BA
:104CE00029E43CE02D933C93089581329105E1F055
:104CF000829739F190E080E030E020E0F3CFC90105
:104D00009927213059F08230910559F0E5E4FCE013
:104D1000892B81F7849190E09F01E4CFEDE2FCE0E4
:104D2000F9CFE9E1FCE0F6CF643020F7E62FF0E0C0
:104D3000EE0FFF1FEC5CFE4F2081318189E090E097
:104D4000D1CF6430B8F670E0FB01EE0FFF1FE45DD9
:104D5000FE4F20813181685D7E4FFB01808190E0B4
:104D6000C1CF82E190E026EB3CE0BCCF80E189BD81
:104D700082E189BD09B400FEFDCF8091D8008F7D0E
:104D80008093D8008091E00082608093E000809161
:104D9000E00081FDFCCF0895AF92BF92CF92DF92E9
:104DA000FF920F931F93CF93DF936C01EB018A0166
:104DB0000E942328F82E811123C00115110539F016
:104DC000F80180819181C81BD90BC80ED91EB12C66
:104DD000A12C2097A9F08091E80085FD22C0809148
:104DE000E8008E778093E80001151105A1F0F80125
:104DF00080819181A80EB91EB182A08285E0F82E33
:104E00008F2DDF91CF911F910F91FF90DF90CF9069
:104E1000BF90AF9008950E9423288823D1F2F82EE6
:104E2000EFCFF60181916F018093F1002197FFEFA1
:104E3000AF1ABF0ACECFFC01CB012091A80230915E
:104E4000A9022617370790F0009729F42091E8006F
:104E50002E772093E80040E0009751F4411108C0FC
:104E60008091E80082FF31C080E00895C901F3CF4E
:104E70002091A1022223A9F12530A9F12091E80077
:104E800023FD2DC02091E80022FDEACF2091E8000B
:104E900020FFE2CF3091F3002091F200009719F04B
:104EA0002830310558F041E02830310509F040E064
:104EB0002091E8002E772093E800CECF41914093D7
:104EC000F10001972F5F3F4FE9CF8091A102882326
:104ED00041F0853041F08091E80083FFC1CF81E04F
:104EE000089582E0089583E00895FC01CB012091AC
:104EF000A8023091A9022617370790F0009729F4ED
:104F00002091E8002E772093E80040E0009751F4CC
:104F1000411108C08091E80082FF32C080E008950E
:104F2000C901F3CF2091A1022223B1F12530B1F1C3
:104F30002091E80023FD2EC02091E80022FDEACF59
:104F40002091E80020FFE2CF3091F3002091F200A1
:104F5000009719F02830310558F041E0283031052C
:104F600009F040E02091E8002E772093E800CECFB2
:104F700044914093F100319601972F5F3F4FE8CF66
:104F80008091A102882341F0853041F08091E800B2
:104F900083FFC0CF81E0089582E0089583E0089503
:104FA000982F973028F08F708093E90081E0089562
:104FB0009093E900242F762F50E0981731F07091EC
:104FC000EC002091ED005091F00021FD02C09F5FA8
:104FD000E8CF3091EB003E7F3093EB003091ED0055
:104FE0003D7F3093ED003091EB0031603093EB006A
:104FF0007093EC002093ED005093F0002091EE00B0
:1050000027FDE5CF80E008958091A20287FF13C0BD
:105010008091E80082FF06C08091E8008B77809342
:10502000E80004C08091A1028111F2CF089580911F
:10503000A1028823D9F38091E80080FFF8CF809106
:10504000E8008E77ECCF2091E4003091E50095E602
:10505000A9012091EC00822F817020FF06C0809171
:10506000E80080FF06C080E008952091E80022FD5E
:105070001AC08091A102882389F0853089F080913F
:10508000EB0085FD0FC02091E4003091E500421750
:105090005307F9F29150E1F684E0089582E0089513
:1050A00083E0089581E008950E94C2280E94CA28E2
:1050B000E0EEF0E0808181608083E8EDF0E08081C7
:1050C0008F77808319BCA7EDB0E08C918E7F8C9395
:1050D00080818F7E80831092A00208950F931F938A
:1050E000CF93DF930E94C2280E94CA28C8EDD0E067
:1050F00088818F77888388818068888388818F7D85
:10510000888319BC1092A10210929D0210929F02F6
:1051100010929E0200EE10E0F80180818B7F808368
:1051200088818160888342E060E080E00E94D0272F
:10513000E1EEF0E080818E7F8083E2EEF0E080811E
:1051400081608083808188608083F80180818E7F88
:105150008083888180618883DF91CF911F910F9137
:105160000895E8EDF0E080818F7E8083E7EDF0E048
:1051700080818160808384E082BF81E08093A0028F
:105180000C946E28E8EDF0E080818E7F8083109291
:10519000E20008951092DA001092E10008951F9243
:1051A0000F920FB60F9211242F933F934F935F935B
:1051B0006F937F938F939F93AF93BF93EF93FF93DF
:1051C0008091E10082FF0BC08091E20082FF07C066
:1051D0008091E1008B7F8093E1000E94302B8091D1
:1051E000DA0080FF19C08091D80080FF15C080913F
:1051F000DA008E7F8093DA008091D90080FF94C01E
:1052000080E189BD82E189BD09B400FEFDCF81E066
:105210008093A1020E944D258091E10080FF19C07A
:105220008091E20080FF15C08091E2008E7F809324
:10523000E2008091E20080618093E2008091D800DA
:1052400080628093D80019BC85E08093A1020E94FF
:105250005F258091E10084FF29C08091E20084FFF6
:1052600025C080E189BD82E189BD09B400FEFDCF82
:105270008091D8008F7D8093D8008091E1008F7E4F
:105280008093E1008091E2008F7E8093E200809124
:10529000E20081608093E20080919D02882309F4FE
:1052A00049C084E08093A1020E9460258091E100C2
:1052B00083FF29C08091E20083FF25C08091E10037
:1052C000877F8093E10082E08093A10210929D028B
:1052D0008091E1008E7F8093E1008091E2008E7FDB
:1052E0008093E2008091E20080618093E20042E0DE
:1052F00060E080E00E94D0278091F0008860809379
:10530000F0000E945E25FF91EF91BF91AF919F91B8
:105310008F917F916F915F914F913F912F910F905E
:105320000FBE0F901F90189519BC1092A1020E94F9
:105330005B2572CF8091E30087FD02C081E0B2CF90
:1053400083E0B0CF1F920F920FB60F9211242F93CC
:105350003F934F935F936F937F938F939F93AF93FD
:10536000BF93CF93DF93EF93FF93D091E900DF706A
:105370008091EC00C82FC17080FDC0E81092E90058
:105380008091F000877F8093F00078940E94E62956
:105390001092E9008091F00088608093F000CD2B9E
:1053A000CF70C093E900FF91EF91DF91CF91BF9152
:1053B000AF919F918F917F916F915F914F913F91AD
:1053C0002F910F900FBE0F901F9018951F93CF93A2
:1053D000DF93CDB7DEB7AA970FB6F894DEBF0FBE46
:1053E000CDBF82EA92E0FC0101962091F10020837A
:1053F00022E08A3A9207B9F70E9476258091E80068
:1054000083FF16C18091A2029091A3029A3008F006
:105410000FC1E92FF0E0E05EF24D0C94A52C80382E
:1054200081F0823809F004C18091A6028F708093C8
:10543000E9008091EB0085FB882780F91092E90054
:1054400006C080919E0290919F029111826090917E
:10545000E800977F9093E8008093F1001092F100AC
:105460008091E8008E77E0C0882309F4CEC08230B6
:1054700009F0DEC08091A4028111D1C08091A60202
:105480008F7009F4D5C08093E9002091EB0020FFD4
:10549000C6C0933031F48091EB0080628093EB00C2
:1054A000BEC09091EB0090619093EB0021E030E062
:1054B00001C0220F8A95EAF72093EA001092EA00D1
:1054C0008091EB008860EACF8111B2C01091A402F4
:1054D0001F778091E3008078812B8093E300809197
:1054E000E800877F8093E8000E9404288091E8000C
:1054F00080FFFCCF8091E30080688093E30082E02E
:10550000111183E08093A10293C08058823008F08B
:105510008FC08091A4029091A5028C3D23E0920758
:10552000A1F583E08A838AE289834FB7F894DE018C
:10553000139620E03EE051E2E32FF0E05093570055
:10554000E49120FF03C0E295EF703F5FEF708E2F74
:1055500090E0EA30C0F0C7968D939D932F5F243181
:1055600059F74FBF8091E800877F8093E8006AE297
:1055700070E0CE0101960E941B278091E8008B7796
:105580008093E80055C0C096E7CFAE014F5F5F4FF4
:105590006091A6020E946026BC01892B09F448C0D4
:1055A0008091E800877F8093E80089819A810E943A
:1055B0007527E3CF8038E1F58091E800877F8093FD
:1055C000E80080919D028093F1004ACF811130C0A4
:1055D0009091A402923060F58091E800877F8093DB
:1055E000E80090939D020E94042880919D028823E8
:1055F00011F084E005C08091E30087FDFACF81E0DF
:105600008093A1020E94622513C08091A402813080
:1056100079F481E0933009F080E080939F0210924A
:10562000E9008091E800877F8093E8000E940428C9
:105630008091E80083FF0AC08091E800877F809313
:10564000E8008091EB0080628093EB00AA960FB691
:10565000F894DEBF0FBECDBFDF91CF911F910895AB
:105660000895CF938091A1028823A1F0C091E90011
:10567000CF709091EC00892F817090FD80E8C82B4D
:105680001092E9008091E80083FD0E94E629CF7026
:10569000C093E900CF9108950E94532B6894B111F3
:1056A0000C94E22B08950E94C72B88F09F5798F026
:1056B000B92F9927B751B0F0E1F0660F771F881F17
:1056C000991F1AF0BA95C9F714C0B13091F00E9431
:1056D000E12BB1E008950C94E12B672F782F8827F8
:1056E000B85F39F0B93FCCF3869577956795B39558
:1056F000D9F73EF490958095709561957F4F8F4FC7
:105700009F4F0895E89409C097FB3EF490958095CB
:10571000709561957F4F8F4F9F4F9923A9F0F92F77
:1057200096E9BB279395F695879577956795B795F5
:10573000F111F8CFFAF4BB0F11F460FF1BC06F5FDB
:105740007F4F8F4F9F4F16C0882311F096E911C0ED
:10575000772321F09EE8872F762F05C0662371F00E
:1057600096E8862F70E060E02AF09A95660F771F22
:10577000881FDAF7880F9695879597F9089557FD52
:105780009058440F551F59F05F3F71F04795880FAF
:1057900097FB991F61F09F3F79F087950895121646
:1057A00013061406551FF2CF4695F1DF08C01616F2
:1057B00017061806991FF1CF8695710561050894A3
:1057C0000895E894BB2766277727CB0197F90895BA
:1057D0000E94FB2B0C946C2C0E945E2C38F00E94D3
:1057E000652C20F0952311F00C94552C0C945B2C17
:1057F00011240C94E22B0E94BF2B70F3959FC1F3F0
:10580000950F50E0551F629FF001729FBB27F00D6E
:10581000B11D639FAA27F00DB11DAA1F649F6627C3
:10582000B00DA11D661F829F2227B00DA11D621F12
:10583000739FB00DA11D621F839FA00D611D221FCC
:10584000749F3327A00D611D231F849F600D211DB0
:10585000822F762F6A2F11249F5750409AF0F1F033
:1058600088234AF0EE0FFF1FBB1F661F771F881F9C
:1058700091505040A9F79E3F510580F00C94552C53
:105880000C94E22B5F3FE4F3983ED4F38695779532
:105890006795B795F795E7959F5FC1F7FE2B880F42
:1058A000911D9695879597F9089597F99F6780E8D8
:1058B00070E060E008959FEF80EC089500240A9462
:1058C0001616170618060906089500240A941216DB
:1058D0001306140605060895092E0394000C11F40E
:1058E000882352F0BB0F40F4BF2B11F460FF04C0BB
:1058F0006F5F7F4F8F4F9F4F0895AA1BBB1B51E1D6
:1059000007C0AA1FBB1FA617B70710F0A61BB70B2F
:10591000881F991F5A95A9F780959095BC01CD01D4
:10592000089597FB072E16F4009407D077FD09D051
:105930000E947D2C07FC05D03EF4909581959F4FE9
:105940000895709561957F4F0895EE0FFF1F0590A4
:10595000F491E02D0994F999FECF92BD81BDF89A9A
:10596000992780B50895A6E1B0E044E050E00C949A
:10597000E52CA8E1B0E042E050E00C94E52C262FA5
:10598000F999FECF92BD81BDF89A019700B4021635
:1059900039F01FBA20BD0FB6F894FA9AF99A0FBEE3
:1059A00008950396272F0E94C02C0E94BF2C252FFC
:1059B0000E94C02C242F0C94C02C0196272F0E94EB
:1059C000C02C0C94BF2CDC01CB01FC01F999FECF5B
:1059D00006C0F2BDE1BDF89A319600B40D92415077
:1059E0005040B8F70895F894FFCFF007F507FA078D
:1059F000FF07040809080E0866088B0813081F082B
:105A0000230827082B082F08330837083B083F08CE
:105A1000430847084B084F08530857085B085F08BE
:105A2000071507155F155F15A315BF153715371532
:105A3000CA15371592169216FD1606173715261732
:105A40000F2A342A182B342A182B642A852A182B5B
:045A5000DA2AE62A3E
:105A5400FF02022808140A321E6A24FA24D724A05A
:105A6400246D2401909193929594969734366667A9
:105A7400F7F6F13233C63031404D3639840D370DE7
:0C5A8400010DC80C5B0C740C8D0CA60C02
:00000001FF
